{
    "contractName": "Treasury",
    "abi": [
        {
            "inputs": [],
            "stateMutability": "nonpayable",
            "type": "constructor"
        },
        {
            "anonymous": false,
            "inputs": [
                {
                    "indexed": true,
                    "internalType": "address",
                    "name": "previousOwner",
                    "type": "address"
                },
                {
                    "indexed": true,
                    "internalType": "address",
                    "name": "newOwner",
                    "type": "address"
                }
            ],
            "name": "OwnershipTransferred",
            "type": "event"
        },
        {
            "stateMutability": "payable",
            "type": "fallback"
        },
        {
            "inputs": [],
            "name": "AVAXBalance",
            "outputs": [
                {
                    "internalType": "uint256",
                    "name": "",
                    "type": "uint256"
                }
            ],
            "stateMutability": "view",
            "type": "function"
        },
        {
            "inputs": [],
            "name": "COLD_AVAX",
            "outputs": [
                {
                    "internalType": "uint256",
                    "name": "",
                    "type": "uint256"
                }
            ],
            "stateMutability": "view",
            "type": "function"
        },
        {
            "inputs": [],
            "name": "COLD_DAI",
            "outputs": [
                {
                    "internalType": "uint256",
                    "name": "",
                    "type": "uint256"
                }
            ],
            "stateMutability": "view",
            "type": "function"
        },
        {
            "inputs": [],
            "name": "CONTRACT_RENOUNCED",
            "outputs": [
                {
                    "internalType": "bool",
                    "name": "",
                    "type": "bool"
                }
            ],
            "stateMutability": "view",
            "type": "function"
        },
        {
            "inputs": [],
            "name": "CUSTODIAN_FEE",
            "outputs": [
                {
                    "internalType": "uint256",
                    "name": "",
                    "type": "uint256"
                }
            ],
            "stateMutability": "view",
            "type": "function"
        },
        {
            "inputs": [],
            "name": "CheckContractRenounced",
            "outputs": [
                {
                    "internalType": "bool",
                    "name": "",
                    "type": "bool"
                }
            ],
            "stateMutability": "view",
            "type": "function"
        },
        {
            "inputs": [],
            "name": "ClaimYield",
            "outputs": [],
            "stateMutability": "nonpayable",
            "type": "function"
        },
        {
            "inputs": [],
            "name": "ClaimYieldAVAX",
            "outputs": [],
            "stateMutability": "nonpayable",
            "type": "function"
        },
        {
            "inputs": [
                {
                    "internalType": "uint256",
                    "name": "_dai",
                    "type": "uint256"
                }
            ],
            "name": "Contribute",
            "outputs": [],
            "stateMutability": "nonpayable",
            "type": "function"
        },
        {
            "inputs": [],
            "name": "ContributeAVAX",
            "outputs": [],
            "stateMutability": "payable",
            "type": "function"
        },
        {
            "inputs": [],
            "name": "ContributerCount",
            "outputs": [
                {
                    "internalType": "uint256",
                    "name": "",
                    "type": "uint256"
                }
            ],
            "stateMutability": "view",
            "type": "function"
        },
        {
            "inputs": [
                {
                    "internalType": "address",
                    "name": "a",
                    "type": "address"
                }
            ],
            "name": "ContributerExists",
            "outputs": [
                {
                    "internalType": "bool",
                    "name": "",
                    "type": "bool"
                }
            ],
            "stateMutability": "view",
            "type": "function"
        },
        {
            "inputs": [],
            "name": "Credits",
            "outputs": [],
            "stateMutability": "pure",
            "type": "function"
        },
        {
            "inputs": [],
            "name": "DaiBalance",
            "outputs": [
                {
                    "internalType": "uint256",
                    "name": "",
                    "type": "uint256"
                }
            ],
            "stateMutability": "view",
            "type": "function"
        },
        {
            "inputs": [],
            "name": "FarmAVAXYields",
            "outputs": [],
            "stateMutability": "nonpayable",
            "type": "function"
        },
        {
            "inputs": [],
            "name": "FarmYields",
            "outputs": [],
            "stateMutability": "nonpayable",
            "type": "function"
        },
        {
            "inputs": [],
            "name": "GetAAVERewards",
            "outputs": [],
            "stateMutability": "nonpayable",
            "type": "function"
        },
        {
            "inputs": [],
            "name": "GetColdAvax",
            "outputs": [
                {
                    "internalType": "uint256",
                    "name": "",
                    "type": "uint256"
                }
            ],
            "stateMutability": "view",
            "type": "function"
        },
        {
            "inputs": [],
            "name": "GetColdDai",
            "outputs": [
                {
                    "internalType": "uint256",
                    "name": "",
                    "type": "uint256"
                }
            ],
            "stateMutability": "view",
            "type": "function"
        },
        {
            "inputs": [
                {
                    "internalType": "address",
                    "name": "a",
                    "type": "address"
                }
            ],
            "name": "GetContributerAVAXPercentageByAddress",
            "outputs": [
                {
                    "internalType": "uint256",
                    "name": "",
                    "type": "uint256"
                }
            ],
            "stateMutability": "view",
            "type": "function"
        },
        {
            "inputs": [
                {
                    "internalType": "address",
                    "name": "a",
                    "type": "address"
                }
            ],
            "name": "GetContributerAVAXYield",
            "outputs": [
                {
                    "internalType": "uint256",
                    "name": "",
                    "type": "uint256"
                }
            ],
            "stateMutability": "view",
            "type": "function"
        },
        {
            "inputs": [
                {
                    "internalType": "address",
                    "name": "a",
                    "type": "address"
                }
            ],
            "name": "GetContributerJoindate",
            "outputs": [
                {
                    "internalType": "uint256",
                    "name": "",
                    "type": "uint256"
                }
            ],
            "stateMutability": "view",
            "type": "function"
        },
        {
            "inputs": [
                {
                    "internalType": "address",
                    "name": "a",
                    "type": "address"
                }
            ],
            "name": "GetContributerPercentageByAddress",
            "outputs": [
                {
                    "internalType": "uint256",
                    "name": "",
                    "type": "uint256"
                }
            ],
            "stateMutability": "view",
            "type": "function"
        },
        {
            "inputs": [
                {
                    "internalType": "address",
                    "name": "addr",
                    "type": "address"
                }
            ],
            "name": "GetContributerUnstakeableAVAXAmount",
            "outputs": [
                {
                    "internalType": "uint256",
                    "name": "",
                    "type": "uint256"
                }
            ],
            "stateMutability": "view",
            "type": "function"
        },
        {
            "inputs": [
                {
                    "internalType": "address",
                    "name": "addr",
                    "type": "address"
                }
            ],
            "name": "GetContributerUnstakeableAmount",
            "outputs": [
                {
                    "internalType": "uint256",
                    "name": "",
                    "type": "uint256"
                }
            ],
            "stateMutability": "view",
            "type": "function"
        },
        {
            "inputs": [
                {
                    "internalType": "address",
                    "name": "a",
                    "type": "address"
                }
            ],
            "name": "GetContributerYield",
            "outputs": [
                {
                    "internalType": "uint256",
                    "name": "",
                    "type": "uint256"
                }
            ],
            "stateMutability": "view",
            "type": "function"
        },
        {
            "inputs": [
                {
                    "internalType": "address",
                    "name": "a",
                    "type": "address"
                }
            ],
            "name": "GetContributionAVAXAmount",
            "outputs": [
                {
                    "internalType": "uint256",
                    "name": "",
                    "type": "uint256"
                }
            ],
            "stateMutability": "view",
            "type": "function"
        },
        {
            "inputs": [
                {
                    "internalType": "address",
                    "name": "a",
                    "type": "address"
                }
            ],
            "name": "GetContributionAVAXYield",
            "outputs": [
                {
                    "internalType": "uint256",
                    "name": "",
                    "type": "uint256"
                }
            ],
            "stateMutability": "view",
            "type": "function"
        },
        {
            "inputs": [
                {
                    "internalType": "address",
                    "name": "a",
                    "type": "address"
                }
            ],
            "name": "GetContributionAmount",
            "outputs": [
                {
                    "internalType": "uint256",
                    "name": "",
                    "type": "uint256"
                }
            ],
            "stateMutability": "view",
            "type": "function"
        },
        {
            "inputs": [
                {
                    "internalType": "address",
                    "name": "a",
                    "type": "address"
                }
            ],
            "name": "GetContributionYield",
            "outputs": [
                {
                    "internalType": "uint256",
                    "name": "",
                    "type": "uint256"
                }
            ],
            "stateMutability": "view",
            "type": "function"
        },
        {
            "inputs": [],
            "name": "GetHotAvax",
            "outputs": [
                {
                    "internalType": "uint256",
                    "name": "",
                    "type": "uint256"
                }
            ],
            "stateMutability": "view",
            "type": "function"
        },
        {
            "inputs": [],
            "name": "GetHotDai",
            "outputs": [
                {
                    "internalType": "uint256",
                    "name": "",
                    "type": "uint256"
                }
            ],
            "stateMutability": "view",
            "type": "function"
        },
        {
            "inputs": [],
            "name": "GetLastYieldTime",
            "outputs": [
                {
                    "internalType": "uint256",
                    "name": "",
                    "type": "uint256"
                }
            ],
            "stateMutability": "view",
            "type": "function"
        },
        {
            "inputs": [
                {
                    "internalType": "address",
                    "name": "a",
                    "type": "address"
                }
            ],
            "name": "GetLifetimeContributionAVAXAmount",
            "outputs": [
                {
                    "internalType": "uint256",
                    "name": "",
                    "type": "uint256"
                }
            ],
            "stateMutability": "view",
            "type": "function"
        },
        {
            "inputs": [
                {
                    "internalType": "address",
                    "name": "a",
                    "type": "address"
                }
            ],
            "name": "GetLifetimeContributionAmount",
            "outputs": [
                {
                    "internalType": "uint256",
                    "name": "",
                    "type": "uint256"
                }
            ],
            "stateMutability": "view",
            "type": "function"
        },
        {
            "inputs": [],
            "name": "GetPendingYield",
            "outputs": [
                {
                    "internalType": "uint256",
                    "name": "",
                    "type": "uint256"
                }
            ],
            "stateMutability": "view",
            "type": "function"
        },
        {
            "inputs": [],
            "name": "GetPendingYieldAVAX",
            "outputs": [
                {
                    "internalType": "uint256",
                    "name": "",
                    "type": "uint256"
                }
            ],
            "stateMutability": "view",
            "type": "function"
        },
        {
            "inputs": [],
            "name": "GetTotalAvaxContribution",
            "outputs": [
                {
                    "internalType": "uint256",
                    "name": "",
                    "type": "uint256"
                }
            ],
            "stateMutability": "view",
            "type": "function"
        },
        {
            "inputs": [],
            "name": "GetTotalDaiContribution",
            "outputs": [
                {
                    "internalType": "uint256",
                    "name": "",
                    "type": "uint256"
                }
            ],
            "stateMutability": "view",
            "type": "function"
        },
        {
            "inputs": [],
            "name": "GetYieldAvax",
            "outputs": [
                {
                    "internalType": "uint256",
                    "name": "",
                    "type": "uint256"
                }
            ],
            "stateMutability": "view",
            "type": "function"
        },
        {
            "inputs": [],
            "name": "GetYieldDai",
            "outputs": [
                {
                    "internalType": "uint256",
                    "name": "",
                    "type": "uint256"
                }
            ],
            "stateMutability": "view",
            "type": "function"
        },
        {
            "inputs": [],
            "name": "GiveMeDai",
            "outputs": [],
            "stateMutability": "payable",
            "type": "function"
        },
        {
            "inputs": [],
            "name": "HOT_AVAX",
            "outputs": [
                {
                    "internalType": "uint256",
                    "name": "",
                    "type": "uint256"
                }
            ],
            "stateMutability": "view",
            "type": "function"
        },
        {
            "inputs": [],
            "name": "HOT_DAI",
            "outputs": [
                {
                    "internalType": "uint256",
                    "name": "",
                    "type": "uint256"
                }
            ],
            "stateMutability": "view",
            "type": "function"
        },
        {
            "inputs": [],
            "name": "HaltContribution",
            "outputs": [],
            "stateMutability": "nonpayable",
            "type": "function"
        },
        {
            "inputs": [],
            "name": "HaltContributionAvax",
            "outputs": [],
            "stateMutability": "nonpayable",
            "type": "function"
        },
        {
            "inputs": [],
            "name": "LAST_YIELD_TIME",
            "outputs": [
                {
                    "internalType": "uint256",
                    "name": "",
                    "type": "uint256"
                }
            ],
            "stateMutability": "view",
            "type": "function"
        },
        {
            "inputs": [],
            "name": "MINIMUM_CONTRIBUTION_AMOUNT_AVAX",
            "outputs": [
                {
                    "internalType": "uint256",
                    "name": "",
                    "type": "uint256"
                }
            ],
            "stateMutability": "view",
            "type": "function"
        },
        {
            "inputs": [],
            "name": "MINIMUM_CONTRIBUTION_AMOUNT_DAI",
            "outputs": [
                {
                    "internalType": "uint256",
                    "name": "",
                    "type": "uint256"
                }
            ],
            "stateMutability": "view",
            "type": "function"
        },
        {
            "inputs": [
                {
                    "internalType": "uint256",
                    "name": "_avax",
                    "type": "uint256"
                }
            ],
            "name": "MinimumAvaxContribution",
            "outputs": [],
            "stateMutability": "nonpayable",
            "type": "function"
        },
        {
            "inputs": [
                {
                    "internalType": "uint256",
                    "name": "_dai",
                    "type": "uint256"
                }
            ],
            "name": "MinimumDaiContribution",
            "outputs": [],
            "stateMutability": "nonpayable",
            "type": "function"
        },
        {
            "inputs": [],
            "name": "RefreshAllowance",
            "outputs": [],
            "stateMutability": "nonpayable",
            "type": "function"
        },
        {
            "inputs": [],
            "name": "RenounceContract",
            "outputs": [],
            "stateMutability": "nonpayable",
            "type": "function"
        },
        {
            "inputs": [],
            "name": "RescueAvax",
            "outputs": [],
            "stateMutability": "nonpayable",
            "type": "function"
        },
        {
            "inputs": [],
            "name": "RescueDai",
            "outputs": [],
            "stateMutability": "nonpayable",
            "type": "function"
        },
        {
            "inputs": [],
            "name": "SweepAvax",
            "outputs": [],
            "stateMutability": "nonpayable",
            "type": "function"
        },
        {
            "inputs": [],
            "name": "SweepDai",
            "outputs": [],
            "stateMutability": "nonpayable",
            "type": "function"
        },
        {
            "inputs": [],
            "name": "TOTAL_AVAX_CONTRIBUTION",
            "outputs": [
                {
                    "internalType": "uint256",
                    "name": "",
                    "type": "uint256"
                }
            ],
            "stateMutability": "view",
            "type": "function"
        },
        {
            "inputs": [],
            "name": "TOTAL_DAI_CONTRIBUTION",
            "outputs": [
                {
                    "internalType": "uint256",
                    "name": "",
                    "type": "uint256"
                }
            ],
            "stateMutability": "view",
            "type": "function"
        },
        {
            "inputs": [],
            "name": "UNSTAKEABLE_FEE",
            "outputs": [
                {
                    "internalType": "uint256",
                    "name": "",
                    "type": "uint256"
                }
            ],
            "stateMutability": "view",
            "type": "function"
        },
        {
            "inputs": [],
            "name": "WAVAXBalance",
            "outputs": [
                {
                    "internalType": "uint256",
                    "name": "",
                    "type": "uint256"
                }
            ],
            "stateMutability": "view",
            "type": "function"
        },
        {
            "inputs": [],
            "name": "YIELD_AVAX",
            "outputs": [
                {
                    "internalType": "uint256",
                    "name": "",
                    "type": "uint256"
                }
            ],
            "stateMutability": "view",
            "type": "function"
        },
        {
            "inputs": [],
            "name": "YIELD_DAI",
            "outputs": [
                {
                    "internalType": "uint256",
                    "name": "",
                    "type": "uint256"
                }
            ],
            "stateMutability": "view",
            "type": "function"
        },
        {
            "inputs": [],
            "name": "avAVAXBalance",
            "outputs": [
                {
                    "internalType": "uint256",
                    "name": "",
                    "type": "uint256"
                }
            ],
            "stateMutability": "view",
            "type": "function"
        },
        {
            "inputs": [],
            "name": "avDAIBalance",
            "outputs": [
                {
                    "internalType": "uint256",
                    "name": "",
                    "type": "uint256"
                }
            ],
            "stateMutability": "view",
            "type": "function"
        },
        {
            "inputs": [
                {
                    "internalType": "uint256",
                    "name": "",
                    "type": "uint256"
                }
            ],
            "name": "contributerList",
            "outputs": [
                {
                    "internalType": "address",
                    "name": "",
                    "type": "address"
                }
            ],
            "stateMutability": "view",
            "type": "function"
        },
        {
            "inputs": [
                {
                    "internalType": "address",
                    "name": "",
                    "type": "address"
                }
            ],
            "name": "contributers",
            "outputs": [
                {
                    "internalType": "address",
                    "name": "addr",
                    "type": "address"
                },
                {
                    "internalType": "uint256",
                    "name": "lifetime_contribution",
                    "type": "uint256"
                },
                {
                    "internalType": "uint256",
                    "name": "lifetime_contribution_avax",
                    "type": "uint256"
                },
                {
                    "internalType": "uint256",
                    "name": "contribution",
                    "type": "uint256"
                },
                {
                    "internalType": "uint256",
                    "name": "contribution_avax",
                    "type": "uint256"
                },
                {
                    "internalType": "uint256",
                    "name": "yield",
                    "type": "uint256"
                },
                {
                    "internalType": "uint256",
                    "name": "yield_avax",
                    "type": "uint256"
                },
                {
                    "internalType": "uint256",
                    "name": "unstakeable",
                    "type": "uint256"
                },
                {
                    "internalType": "uint256",
                    "name": "unstakeable_avax",
                    "type": "uint256"
                },
                {
                    "internalType": "uint256",
                    "name": "joined",
                    "type": "uint256"
                },
                {
                    "internalType": "bool",
                    "name": "exists",
                    "type": "bool"
                }
            ],
            "stateMutability": "view",
            "type": "function"
        },
        {
            "inputs": [],
            "name": "name",
            "outputs": [
                {
                    "internalType": "string",
                    "name": "",
                    "type": "string"
                }
            ],
            "stateMutability": "view",
            "type": "function"
        },
        {
            "inputs": [],
            "name": "owner",
            "outputs": [
                {
                    "internalType": "address",
                    "name": "",
                    "type": "address"
                }
            ],
            "stateMutability": "view",
            "type": "function"
        },
        {
            "inputs": [],
            "name": "renounceOwnership",
            "outputs": [],
            "stateMutability": "nonpayable",
            "type": "function"
        },
        {
            "inputs": [],
            "name": "symbol",
            "outputs": [
                {
                    "internalType": "string",
                    "name": "",
                    "type": "string"
                }
            ],
            "stateMutability": "view",
            "type": "function"
        },
        {
            "inputs": [
                {
                    "internalType": "address",
                    "name": "newOwner",
                    "type": "address"
                }
            ],
            "name": "transferOwnership",
            "outputs": [],
            "stateMutability": "nonpayable",
            "type": "function"
        },
        {
            "stateMutability": "payable",
            "type": "receive"
        }
    ],
    "bytecode": "60c0604052601360809081527f5969656c6452697365205472656173757265720000000000000000000000000060a0526002906200003e9082620003a1565b5060408051808201909152601281527159524176616c61756e63684e6574776f726b60701b6020820152600390620000779082620003a1565b506004805460ff19169055678ac7230489e8000060055567016345785d8a00006006556000600781905560088190556009819055600a819055600b819055600c819055600d819055600e819055600f55348015620000d457600080fd5b506001600055620000e533620002aa565b60405163095ea7b360e01b815273794a61358d6845594f94dc1db02a252b5b4814ad6004820152600019602482015273b31f66aa3c1e785363f0875a1b74e27b85fd66c79063095ea7b3906044016020604051808303816000875af115801562000153573d6000803e3d6000fd5b505050506040513d601f19601f820116820180604052508101906200017991906200046d565b5060405163095ea7b360e01b815273794a61358d6845594f94dc1db02a252b5b4814ad6004820152600019602482015273d586e7f844cea2f87f50152665bcbc2c279d8d709063095ea7b3906044016020604051808303816000875af1158015620001e8573d6000803e3d6000fd5b505050506040513d601f19601f820116820180604052508101906200020e91906200046d565b5060405163095ea7b360e01b81527360ae616a2155ee3d9a68541ba4544862310933d46004820152600019602482015273b31f66aa3c1e785363f0875a1b74e27b85fd66c79063095ea7b3906044016020604051808303816000875af11580156200027d573d6000803e3d6000fd5b505050506040513d601f19601f82011682018060405250810190620002a391906200046d565b5062000498565b600180546001600160a01b038381166001600160a01b0319831681179093556040519116919082907f8be0079c531659141344cd1fd0a4f28419497f9722a3daafe3b4186f6b6457e090600090a35050565b634e487b7160e01b600052604160045260246000fd5b600181811c908216806200032757607f821691505b6020821081036200034857634e487b7160e01b600052602260045260246000fd5b50919050565b601f8211156200039c57600081815260208120601f850160051c81016020861015620003775750805b601f850160051c820191505b81811015620003985782815560010162000383565b5050505b505050565b81516001600160401b03811115620003bd57620003bd620002fc565b620003d581620003ce845462000312565b846200034e565b602080601f8311600181146200040d5760008415620003f45750858301515b600019600386901b1c1916600185901b17855562000398565b600085815260208120601f198616915b828110156200043e578886015182559484019460019091019084016200041d565b50858210156200045d5787850151600019600388901b60f8161c191681555b5050505050600190811b01905550565b6000602082840312156200048057600080fd5b815180151581146200049157600080fd5b9392505050565b613dbf80620004a86000396000f3fe6080604052600436106103ef5760003560e01c80636bd0997611610206578063983a284111610117578063cead793a116100a5578063d70644bb11610077578063d70644bb14610b07578063d75e6d6114610b1c578063df6c10f314610b3c578063f2fde38b14610b51578063f6817f9214610b7157005b8063cead793a146107ae578063d10e66fc14610ab2578063d173636414610ad2578063d4ffde4414610ae757005b8063a20f5d93116100e9578063a20f5d9314610a4c578063a3d5792f14610a6c578063ab7cc81914610a74578063b68df35514610a8a578063baa615ca14610a9d57005b8063983a2841146109f75780639c0c0aab14610a0d5780639ce2c9cf14610a22578063a09e007614610a3757005b80637eed4c6911610194578063845833481161016657806384583348146109795780638747fe911461098e5780638756f16a146109a45780638da5cb5b146109c457806395d89b41146109e257005b80637eed4c691461091f57806380d22ad01461093457806380ddf75a1461094957806381153e2e1461095f57005b80637202370c116101d85780637202370c146108ab578063726480c2146108c057806373150483146108d55780637a364be5146108ea5780637a575396146108ff57005b80636bd09976146108575780636ccd50aa1461086c5780636d8f961814610881578063715018a61461089657005b8063390e2445116103005780634a7d86951161028e5780635cc6d5ef116102605780635cc6d5ef146107e35780635e8377d6146107f857806362bf5f101461081857806363d23f0e1461082d578063667f085d1461084257005b80634a7d869514610784578063523aabc4146107995780635659224e146107ae57806356d62427146107ce57005b806343b6a598116102d257806343b6a598146106ec57806346060e54146107025780634684d9c41461073a57806346cd4f8c1461075a57806348f3c68c1461076f57005b8063390e24451461068b57806339607c4b146106a15780633f3255b4146106b757806343921f6a146106cc57005b80632532c6ed1161037d57806334696eb51161034f57806334696eb51461055557806334b664601461057557806336e71ee314610655578063372e62501461044757806338099fe71461066b57005b80632532c6ed146104f357806332e91bad1461050957806333f3d3fe1461051f5780633416422e1461053557005b806315d394ef116103c157806315d394ef146104955780631fe83d20146104aa5780632112e1dd146104c05780632125e196146104d557806324d1095c146104eb57005b806306fdde03146103f8578063073cde2d146104235780630b944ceb1461044757806313d6ccef1461047557005b366103f657005b005b34801561040457600080fd5b5061040d610b86565b60405161041a9190613728565b60405180910390f35b34801561042f57600080fd5b5060045460ff165b604051901515815260200161041a565b34801561045357600080fd5b5061046761046236600461377d565b610c14565b60405190815260200161041a565b34801561048157600080fd5b5061046761049036600461377d565b610c63565b3480156104a157600080fd5b50601154610467565b3480156104b657600080fd5b506104676103e881565b3480156104cc57600080fd5b50610467610c9a565b3480156104e157600080fd5b50610467611d4c81565b6103f6610cd0565b3480156104ff57600080fd5b50610467600b5481565b34801561051557600080fd5b50610467600f5481565b34801561052b57600080fd5b50610467600c5481565b34801561054157600080fd5b5061046761055036600461377d565b610e1b565b34801561056157600080fd5b5061046761057036600461377d565b610f30565b34801561058157600080fd5b506105f661059036600461377d565b601060205260009081526040902080546001820154600283015460038401546004850154600586015460068701546007880154600889015460098a0154600a909a01546001600160a01b0390991699979896979596949593949293919290919060ff168b565b604080516001600160a01b03909c168c5260208c019a909a52988a01979097526060890195909552608088019390935260a087019190915260c086015260e085015261010084015261012083015215156101408201526101600161041a565b34801561066157600080fd5b5061046760085481565b34801561067757600080fd5b506103f66106863660046137a6565b610f5f565b34801561069757600080fd5b50610467600a5481565b3480156106ad57600080fd5b50610467600e5481565b3480156106c357600080fd5b50610467610f8e565b3480156106d857600080fd5b506104676106e736600461377d565b611005565b3480156106f857600080fd5b5061046760065481565b34801561070e57600080fd5b5061072261071d3660046137a6565b61110a565b6040516001600160a01b03909116815260200161041a565b34801561074657600080fd5b5061046761075536600461377d565b611134565b34801561076657600080fd5b506103f661117a565b34801561077b57600080fd5b50600754610467565b34801561079057600080fd5b50600b54610467565b3480156107a557600080fd5b506103f6611312565b3480156107ba57600080fd5b506104676107c936600461377d565b611496565b3480156107da57600080fd5b50600d54610467565b3480156107ef57600080fd5b506104676114dc565b34801561080457600080fd5b5061046761081336600461377d565b611521565b34801561082457600080fd5b50600c54610467565b34801561083957600080fd5b506103f6611567565b34801561084e57600080fd5b506103f66115cc565b34801561086357600080fd5b50600f54610467565b34801561087857600080fd5b50610467611605565b34801561088d57600080fd5b506103f661163f565b3480156108a257600080fd5b506103f6611904565b3480156108b757600080fd5b506103f661193a565b3480156108cc57600080fd5b506103f6611b5f565b3480156108e157600080fd5b506103f6611b9f565b3480156108f657600080fd5b506103f6611d75565b34801561090b57600080fd5b506103f661091a3660046137a6565b611dbd565b34801561092b57600080fd5b50600a54610467565b34801561094057600080fd5b50600954610467565b34801561095557600080fd5b50610467600d5481565b34801561096b57600080fd5b506004546104379060ff1681565b34801561098557600080fd5b506103f6611dec565b34801561099a57600080fd5b5061046760075481565b3480156109b057600080fd5b506104676109bf36600461377d565b611f9e565b3480156109d057600080fd5b506001546001600160a01b0316610722565b3480156109ee57600080fd5b5061040d611fe4565b348015610a0357600080fd5b5061046760095481565b348015610a1957600080fd5b506103f6611ff1565b348015610a2e57600080fd5b506103f6612189565b348015610a4357600080fd5b50610467612303565b348015610a5857600080fd5b50610467610a6736600461377d565b612337565b6103f661237d565b348015610a8057600080fd5b5061046760055481565b348015610a9657600080fd5b5047610467565b348015610aa957600080fd5b506104676125c2565b348015610abe57600080fd5b506103f6610acd3660046137a6565b6125fc565b348015610ade57600080fd5b506103f66128f7565b348015610af357600080fd5b50610467610b0236600461377d565b612c28565b348015610b1357600080fd5b506103f6612c6e565b348015610b2857600080fd5b50610437610b3736600461377d565b612e64565b348015610b4857600080fd5b50600854610467565b348015610b5d57600080fd5b506103f6610b6c36600461377d565b612e85565b348015610b7d57600080fd5b50600e54610467565b60028054610b93906137bf565b80601f0160208091040260200160405190810160405280929190818152602001828054610bbf906137bf565b8015610c0c5780601f10610be157610100808354040283529160200191610c0c565b820191906000526020600020905b815481529060010190602001808311610bef57829003601f168201915b505050505081565b6000610c1f82612e64565b610c445760405162461bcd60e51b8152600401610c3b906137f9565b60405180910390fd5b506001600160a01b031660009081526010602052604090206005015490565b6000610c6e82612e64565b15610c9257506001600160a01b031660009081526010602052604090206007015490565b506000919050565b6000600b54600954600a54610caf9190613865565b610cb99190613865565b610cc1611605565b610ccb919061387d565b905090565b6040805160028082526060808301845292602083019080368337019050509050600080516020613d6a83398151915281600081518110610d1257610d126138aa565b60200260200101906001600160a01b031690816001600160a01b03168152505073d586e7f844cea2f87f50152665bcbc2c279d8d7081600181518110610d5a57610d5a6138aa565b6001600160a01b03909216602092830291909101909101526000610d7f42600a613865565b90506000610d8c34612f1d565b60405163a2a1623d60e01b81529091507360ae616a2155ee3d9a68541ba4544862310933d49063a2a1623d903490610dce908590889033908990600401613904565b60006040518083038185885af1158015610dec573d6000803e3d6000fd5b50505050506040513d6000823e601f3d908101601f19168201604052610e159190810190613939565b50505050565b6000610e2682612e64565b610e425760405162461bcd60e51b8152600401610c3b906137f9565b6000805b601154811015610ead576010600060118381548110610e6757610e676138aa565b60009182526020808320909101546001600160a01b03168352820192909252604001902060030154610e999083613865565b915080610ea5816139f7565b915050610e46565b5080600003610ef55760405162461bcd60e51b81526020600482015260146024820152734e6f2044414920636f6e747269627574696f6e7360601b6044820152606401610c3b565b6001600160a01b0383166000908152601060205260409020600301548190610f1f90612710613a10565b610f299190613a2f565b9392505050565b6000610f3b82612e64565b15610c9257506001600160a01b031660009081526010602052604090206008015490565b6001546001600160a01b03163314610f895760405162461bcd60e51b8152600401610c3b90613a51565b600555565b6040516370a0823160e01b815230600482015260009073d586e7f844cea2f87f50152665bcbc2c279d8d70906370a08231906024015b602060405180830381865afa158015610fe1573d6000803e3d6000fd5b505050506040513d601f19601f82011682018060405250810190610ccb9190613a86565b600061101082612e64565b61102c5760405162461bcd60e51b8152600401610c3b90613a9f565b6000805b601154811015611097576010600060118381548110611051576110516138aa565b60009182526020808320909101546001600160a01b031683528201929092526040019020600401546110839083613865565b91508061108f816139f7565b915050611030565b50806000036110e05760405162461bcd60e51b81526020600482015260156024820152744e6f204156415820636f6e747269627574696f6e7360581b6044820152606401610c3b565b6001600160a01b0383166000908152601060205260409020600401548190610f1f90612710613a10565b6011818154811061111a57600080fd5b6000918252602090912001546001600160a01b0316905081565b600061113f82612e64565b61115b5760405162461bcd60e51b8152600401610c3b90613a9f565b506001600160a01b031660009081526010602052604090206004015490565b6001546001600160a01b031633146111a45760405162461bcd60e51b8152600401610c3b90613a51565b60045460ff1615156001036111fb5760405162461bcd60e51b815260206004820152601d60248201527f556e61626c6520746f20706572666f726d207468697320616374696f6e0000006044820152606401610c3b565b60005b6011548110156112505760006011828154811061121d5761121d6138aa565b6000918252602090912001546001600160a01b0316905061123d8161307b565b5080611248816139f7565b9150506111fe565b50600061125b6114dc565b600e54600d5461126b9190613865565b6112759190613865565b90507382e64f49ed5ec1bc6e43dad4fc8af9bb3a2312ee63a9059cbb6112a36001546001600160a01b031690565b836040518363ffffffff1660e01b81526004016112c1929190613afc565b6020604051808303816000875af11580156112e0573d6000803e3d6000fd5b505050506040513d601f19601f820116820180604052508101906113049190613b15565b50506000600e819055600d55565b600061131c610c9a565b9050600061271061132f836103e8613a10565b6113399190613a2f565b9050600061271061134c6103e885613a10565b6113569190613a2f565b9050736d80113e533a2c0fe82eabd35f1875dcea89ea9763a9059cbb6113846001546001600160a01b031690565b836040518363ffffffff1660e01b81526004016113a2929190613afc565b6020604051808303816000875af11580156113c1573d6000803e3d6000fd5b505050506040513d601f19601f820116820180604052508101906113e59190613b15565b506113ef8261326d565b6113f98183613865565b611403908461387d565b925061140e83613281565b60005b60115481101561148c57600060118281548110611430576114306138aa565b60009182526020822001546001600160a01b0316915061144f82611005565b905060006127106114608389613a10565b61146a9190613a2f565b90506114768382613295565b5050508080611484906139f7565b915050611411565b505042600f555050565b60006114a182612e64565b6114bd5760405162461bcd60e51b8152600401610c3b90613a9f565b506001600160a01b031660009081526010602052604090206006015490565b600080600e54600c54600d546114f29190613865565b6114fc9190613865565b6115046125c2565b61150e919061387d565b90506000811161151c575060005b919050565b600061152c82612e64565b6115485760405162461bcd60e51b8152600401610c3b906137f9565b506001600160a01b031660009081526010602052604090206003015490565b60405162461bcd60e51b815260206004820152603460248201527f44657369676e656420616e6420456e67696e65657265642062792054686520476044820152737265617420456e67696e6565727320402032314360601b6064820152608401610c3b565b6001546001600160a01b031633146115f65760405162461bcd60e51b8152600401610c3b90613a51565b6004805460ff19166001179055565b6040516370a0823160e01b8152306004820152600090736d80113e533a2c0fe82eabd35f1875dcea89ea97906370a0823190602401610fc4565b6002600054036116615760405162461bcd60e51b8152600401610c3b90613b37565b600260005561166f33612e64565b156118965733600090815260106020526040812060060154908190036116e35760405162461bcd60e51b815260206004820152602360248201527f596f752068617665204e6f205969656c6420666f7220746865204156415820506044820152621bdbdb60ea1b6064820152608401610c3b565b80600b5410156117055760405162461bcd60e51b8152600401610c3b90613b6e565b336000908152601060205260408082206006019190915551631a4ca37b60e21b815273794a61358d6845594f94dc1db02a252b5b4814ad906369328dec9061176390600080516020613d6a8339815191529085903090600401613bb9565b6020604051808303816000875af1158015611782573d6000803e3d6000fd5b505050506040513d601f19601f820116820180604052508101906117a69190613a86565b506117b0816132df565b60405163a9059cbb60e01b8152600090600080516020613d6a8339815191529063a9059cbb906117e69033908690600401613afc565b6020604051808303816000875af1158015611805573d6000803e3d6000fd5b505050506040513d601f19601f820116820180604052508101906118299190613b15565b90508061188f5760405162461bcd60e51b815260206004820152602e60248201527f556e61626c6520746f20636c61696d207969656c64732c20706c65617365206360448201526d1bdb9d1858dd081cdd5c1c1bdc9d60921b6064820152608401610c3b565b50506118fd565b60405162461bcd60e51b815260206004820152603660248201527f54686973206164647265737320776173206e6f7420666f756e6420696e206f756044820152757220636f6e747269627574696f6e207265636f72647360501b6064820152608401610c3b565b6001600055565b6001546001600160a01b0316331461192e5760405162461bcd60e51b8152600401610c3b90613a51565b61193860006132ed565b565b60026000540361195c5760405162461bcd60e51b8152600401610c3b90613b37565b60026000553361196b81612e64565b6119875760405162461bcd60e51b8152600401610c3b90613bdc565b6001600160a01b038116600090815260106020526040812060070154908190036119c35760405162461bcd60e51b8152600401610c3b90613c32565b604051631a4ca37b60e21b815260009073794a61358d6845594f94dc1db02a252b5b4814ad906369328dec90611a159073d586e7f844cea2f87f50152665bcbc2c279d8d709086903090600401613bb9565b6020604051808303816000875af1158015611a34573d6000803e3d6000fd5b505050506040513d601f19601f82011682018060405250810190611a589190613a86565b6001600160a01b038416600090815260106020526040812060078101829055600301559050611a868261333f565b60405163a9059cbb60e01b815260009073d586e7f844cea2f87f50152665bcbc2c279d8d709063a9059cbb90611ac29087908690600401613afc565b6020604051808303816000875af1158015611ae1573d6000803e3d6000fd5b505050506040513d601f19601f82011682018060405250810190611b059190613b15565b905080611b545760405162461bcd60e51b815260206004820152601b60248201527f556e61626c6520746f20776974686472617720486f74204441496500000000006044820152606401610c3b565b505060016000555050565b6001546001600160a01b03163314611b895760405162461bcd60e51b8152600401610c3b90613a51565b47611b9381613353565b611b9c8161326d565b50565b6001546001600160a01b03163314611bc95760405162461bcd60e51b8152600401610c3b90613a51565b60405163095ea7b360e01b8152600080516020613d6a8339815191529063095ea7b390611c129073794a61358d6845594f94dc1db02a252b5b4814ad9060001990600401613afc565b6020604051808303816000875af1158015611c31573d6000803e3d6000fd5b505050506040513d601f19601f82011682018060405250810190611c559190613b15565b5060405163095ea7b360e01b815273d586e7f844cea2f87f50152665bcbc2c279d8d709063095ea7b390611ca59073794a61358d6845594f94dc1db02a252b5b4814ad9060001990600401613afc565b6020604051808303816000875af1158015611cc4573d6000803e3d6000fd5b505050506040513d601f19601f82011682018060405250810190611ce89190613b15565b5060405163095ea7b360e01b8152600080516020613d6a8339815191529063095ea7b390611d32907360ae616a2155ee3d9a68541ba4544862310933d49060001990600401613afc565b6020604051808303816000875af1158015611d51573d6000803e3d6000fd5b505050506040513d601f19601f82011682018060405250810190611b9c9190613b15565b6001546001600160a01b03163314611d9f5760405162461bcd60e51b8152600401610c3b90613a51565b6000611da9610f8e565b9050611db4816133e3565b611b9c81613470565b6001546001600160a01b03163314611de75760405162461bcd60e51b8152600401610c3b90613a51565b600655565b600260005403611e0e5760405162461bcd60e51b8152600401610c3b90613b37565b6002600055611e1c33612e64565b15611896573360009081526010602052604081206005015490819003611e8f5760405162461bcd60e51b815260206004820152602260248201527f596f752068617665204e6f205969656c6420666f72207468652044414920506f6044820152611bdb60f21b6064820152608401610c3b565b80600e541015611eb15760405162461bcd60e51b8152600401610c3b90613b6e565b336000908152601060205260408082206005019190915551631a4ca37b60e21b815273794a61358d6845594f94dc1db02a252b5b4814ad906369328dec90611f159073d586e7f844cea2f87f50152665bcbc2c279d8d709085903090600401613bb9565b6020604051808303816000875af1158015611f34573d6000803e3d6000fd5b505050506040513d601f19601f82011682018060405250810190611f589190613a86565b50611f6281613484565b60405163a9059cbb60e01b815260009073d586e7f844cea2f87f50152665bcbc2c279d8d709063a9059cbb906117e69033908690600401613afc565b6000611fa982612e64565b611fc55760405162461bcd60e51b8152600401610c3b90613a9f565b506001600160a01b031660009081526010602052604090206002015490565b60038054610b93906137bf565b6001546001600160a01b0316331461201b5760405162461bcd60e51b8152600401610c3b90613a51565b60045460ff1615156001036120725760405162461bcd60e51b815260206004820152601d60248201527f556e61626c6520746f20706572666f726d207468697320616374696f6e0000006044820152606401610c3b565b60005b6011548110156120c757600060118281548110612094576120946138aa565b6000918252602090912001546001600160a01b031690506120b481613498565b50806120bf816139f7565b915050612075565b5060006120d2610c9a565b600b54600a546120e29190613865565b6120ec9190613865565b9050736d80113e533a2c0fe82eabd35f1875dcea89ea9763a9059cbb61211a6001546001600160a01b031690565b836040518363ffffffff1660e01b8152600401612138929190613afc565b6020604051808303816000875af1158015612157573d6000803e3d6000fd5b505050506040513d601f19601f8201168201806040525081019061217b9190613b15565b50506000600b819055600a55565b60006121936114dc565b905060006127106121a6836103e8613a10565b6121b09190613a2f565b905060006127106121c36103e885613a10565b6121cd9190613a2f565b90507382e64f49ed5ec1bc6e43dad4fc8af9bb3a2312ee63a9059cbb6121fb6001546001600160a01b031690565b836040518363ffffffff1660e01b8152600401612219929190613afc565b6020604051808303816000875af1158015612238573d6000803e3d6000fd5b505050506040513d601f19601f8201168201806040525081019061225c9190613b15565b5061226682613470565b6122708183613865565b61227a908461387d565b9250612285836134a1565b60005b60115481101561148c576000601182815481106122a7576122a76138aa565b60009182526020822001546001600160a01b031691506122c682610e1b565b905060006127106122d78389613a10565b6122e19190613a2f565b90506122ed83826134af565b50505080806122fb906139f7565b915050612288565b6040516370a0823160e01b8152306004820152600090600080516020613d6a833981519152906370a0823190602401610fc4565b600061234282612e64565b61235e5760405162461bcd60e51b8152600401610c3b906137f9565b506001600160a01b031660009081526010602052604090206001015490565b60026000540361239f5760405162461bcd60e51b8152600401610c3b90613b37565b60026000556006543410156123c65760405162461bcd60e51b8152600401610c3b90613c85565b3460006127106123d8611d4c84613a10565b6123e29190613a2f565b905060006127106123f5846109c4613a10565b6123ff9190613a2f565b905061240a83613353565b612413826134f9565b61241c8161326d565b61242533612e64565b156124ac5733600090815260106020526040902060020154612448908490613865565b33600090815260106020526040902060028101919091556004015461246e908490613865565b336000908152601060205260409020600481019190915560080154612494908390613865565b336000908152601060205260409020600801556125b0565b6124b46136c3565b33808252608082018581526040808401878152600060a086018181526001610140880181815261010089018b8152426101208b01908152898652601060209081529786208b5181546001600160a01b03199081166001600160a01b03909216919091178255988c0151818601559651600288015560608b01516003880155975160048701559251600586015560c0890151600686015560e090980151600785015590516008840155935160098301559451600a909101805460ff19169115159190911790556011805492830181559093527f31ecc21a745e3968a04e9570e4425bc18fa8019c68028196b546d1669c200c680180549092161790555b6125b8611312565b5050600160005550565b6040516370a0823160e01b81523060048201526000907382e64f49ed5ec1bc6e43dad4fc8af9bb3a2312ee906370a0823190602401610fc4565b60055481101561261e5760405162461bcd60e51b8152600401610c3b90613c85565b6040516323b872dd60e01b81523360048201523060248201526044810182905260009073d586e7f844cea2f87f50152665bcbc2c279d8d70906323b872dd906064016020604051808303816000875af115801561267f573d6000803e3d6000fd5b505050506040513d601f19601f820116820180604052508101906126a39190613b15565b9050801561289e5760006127106126bc611d4c85613a10565b6126c69190613a2f565b905060006127106126d9856109c4613a10565b6126e39190613a2f565b90506126ee846133e3565b6126f78261350d565b61270081613470565b61270933612e64565b15612790573360009081526010602052604090206001015461272c908590613865565b336000908152601060205260409020600181019190915560030154612752908590613865565b336000908152601060205260409020600381019190915560070154612778908390613865565b33600090815260106020526040902060070155612896565b6127986136c3565b33808252606082018681526020808401888152600060a086018181526001610140880181815260e089018b8152426101208b01908152898652601090975260408086208b5181546001600160a01b03199081166001600160a01b03909216919091178255975181860155908b015160028201559751600389015560808a015160048901559251600588015560c0890151600688015591516007870155610100909701516008860155925160098501559151600a909301805460ff19169315159390931790925560118054948501815590527f31ecc21a745e3968a04e9570e4425bc18fa8019c68028196b546d1669c200c6890920180549092161790555b610e15612189565b60405162461bcd60e51b815260206004820152602860248201527f556e61626c6520746f207472616e73666572204441496520746f20746869732060448201526718dbdb9d1c9858dd60c21b6064820152608401610c3b565b6001546001600160a01b031633146129215760405162461bcd60e51b8152600401610c3b90613a51565b60408051600280825260608083018452926020830190803683370190505090507382e64f49ed5ec1bc6e43dad4fc8af9bb3a2312ee81600081518110612969576129696138aa565b60200260200101906001600160a01b031690816001600160a01b031681525050736d80113e533a2c0fe82eabd35f1875dcea89ea97816001815181106129b1576129b16138aa565b6001600160a01b03909216602092830291909101909101526040516308d8c03760e21b815260009073929ec64c34a17401f460460d4b9390518e5b473e9063236300dc90612a19908590600019903090600080516020613d6a83398151915290600401613ce2565b6020604051808303816000875af1158015612a38573d6000803e3d6000fd5b505050506040513d601f19601f82011682018060405250810190612a5c9190613a86565b90508015612beb576000612710612a75836101f4613a10565b612a7f9190613a2f565b90506000612710612a926103e885613a10565b612a9c9190613a2f565b9050600080516020613d6a83398151915263a9059cbb612ac46001546001600160a01b031690565b836040518363ffffffff1660e01b8152600401612ae2929190613afc565b6020604051808303816000875af1158015612b01573d6000803e3d6000fd5b505050506040513d601f19601f82011682018060405250810190612b259190613b15565b506000612b32828561387d565b60405163617ba03760e01b815290915073794a61358d6845594f94dc1db02a252b5b4814ad9063617ba03790612b8190600080516020613d6a8339815191529085903090600090600401613d1b565b600060405180830381600087803b158015612b9b57600080fd5b505af1158015612baf573d6000803e3d6000fd5b50505050612bbc8361326d565b612bc68284613865565b612bd0908561387d565b9350612bdb84613281565b612be48461351b565b5050505050565b60405162461bcd60e51b8152602060048201526012602482015271139bc81e5a595b190819d95b995c985d195960721b6044820152606401610c3b565b6000612c3382612e64565b612c4f5760405162461bcd60e51b8152600401610c3b906137f9565b506001600160a01b031660009081526010602052604090206009015490565b33612c7881612e64565b612c945760405162461bcd60e51b8152600401610c3b90613bdc565b6001600160a01b03811660009081526010602052604081206008015490819003612cd05760405162461bcd60e51b8152600401610c3b90613c32565b604051631a4ca37b60e21b815260009073794a61358d6845594f94dc1db02a252b5b4814ad906369328dec90612d1c90600080516020613d6a8339815191529086903090600401613bb9565b6020604051808303816000875af1158015612d3b573d6000803e3d6000fd5b505050506040513d601f19601f82011682018060405250810190612d5f9190613a86565b6001600160a01b038416600090815260106020526040812060088101829055600401559050612d8d82613628565b60405163a9059cbb60e01b8152600090600080516020613d6a8339815191529063a9059cbb90612dc39087908690600401613afc565b6020604051808303816000875af1158015612de2573d6000803e3d6000fd5b505050506040513d601f19601f82011682018060405250810190612e069190613b15565b905080610e155760405162461bcd60e51b815260206004820152602660248201527f556e61626c6520746f20776974686472617720486f742041564158202861732060448201526557415641582960d01b6064820152608401610c3b565b6001600160a01b03166000908152601060205260409020600a015460ff1690565b6001546001600160a01b03163314612eaf5760405162461bcd60e51b8152600401610c3b90613a51565b6001600160a01b038116612f145760405162461bcd60e51b815260206004820152602660248201527f4f776e61626c653a206e6577206f776e657220697320746865207a65726f206160448201526564647265737360d01b6064820152608401610c3b565b611b9c816132ed565b6040805160028082526060808301845260009390929190602083019080368337019050509050600080516020613d6a83398151915281600081518110612f6557612f656138aa565b60200260200101906001600160a01b031690816001600160a01b03168152505073d586e7f844cea2f87f50152665bcbc2c279d8d7081600181518110612fad57612fad6138aa565b6001600160a01b039092166020928302919091019091015260405163d06ca61f60e01b815283906000907360ae616a2155ee3d9a68541ba4544862310933d49063d06ca61f906130039085908790600401613d48565b600060405180830381865afa158015613020573d6000803e3d6000fd5b505050506040513d6000823e601f3d908101601f191682016040526130489190810190613939565b90508060018451613059919061387d565b81518110613069576130696138aa565b60200260200101519350505050919050565b61308481612e64565b6130a05760405162461bcd60e51b8152600401610c3b90613bdc565b6001600160a01b038116600090815260106020526040812060070154908190036130dc5760405162461bcd60e51b8152600401610c3b90613c32565b604051631a4ca37b60e21b815260009073794a61358d6845594f94dc1db02a252b5b4814ad906369328dec9061312e9073d586e7f844cea2f87f50152665bcbc2c279d8d709086903090600401613bb9565b6020604051808303816000875af115801561314d573d6000803e3d6000fd5b505050506040513d601f19601f820116820180604052508101906131719190613a86565b6001600160a01b03841660009081526010602052604081206007810182905560030155905061319f8261333f565b60405163a9059cbb60e01b815260009073d586e7f844cea2f87f50152665bcbc2c279d8d709063a9059cbb906131db9087908690600401613afc565b6020604051808303816000875af11580156131fa573d6000803e3d6000fd5b505050506040513d601f19601f8201168201806040525081019061321e9190613b15565b905080610e155760405162461bcd60e51b815260206004820152601b60248201527f556e61626c6520746f20776974686472617720486f74204441496500000000006044820152606401610c3b565b80600a5461327b9190613865565b600a5550565b80600b5461328f9190613865565b600b5550565b6001600160a01b0382166000908152601060205260409020600601546132bc908290613865565b6001600160a01b0390921660009081526010602052604090206006019190915550565b80600b5461328f919061387d565b600180546001600160a01b038381166001600160a01b0319831681179093556040519116919082907f8be0079c531659141344cd1fd0a4f28419497f9722a3daafe3b4186f6b6457e090600090a35050565b80600c5461334d919061387d565b600c5550565b61335c81613636565b60405163617ba03760e01b815273794a61358d6845594f94dc1db02a252b5b4814ad9063617ba037906133a890600080516020613d6a8339815191529085903090600090600401613d1b565b600060405180830381600087803b1580156133c257600080fd5b505af11580156133d6573d6000803e3d6000fd5b50505050611b9c8161369b565b60405163617ba03760e01b815273794a61358d6845594f94dc1db02a252b5b4814ad9063617ba037906134359073d586e7f844cea2f87f50152665bcbc2c279d8d709085903090600090600401613d1b565b600060405180830381600087803b15801561344f57600080fd5b505af1158015613463573d6000803e3d6000fd5b50505050611b9c816136af565b80600d5461347e9190613865565b600d5550565b80600e54613492919061387d565b600e5550565b612c7881612e64565b80600e546134929190613865565b6001600160a01b0382166000908152601060205260409020600501546134d6908290613865565b6001600160a01b0390921660009081526010602052604090206005019190915550565b806009546135079190613865565b60095550565b80600c5461334d9190613865565b6000613528600283613a2f565b90508060005b6011548110156135a95760006011828154811061354d5761354d6138aa565b60009182526020822001546001600160a01b0316915061356c82610e1b565b9050600061271061357d8387613a10565b6135879190613a2f565b90506135938382613295565b50505080806135a1906139f7565b91505061352e565b5060005b601154811015610e15576000601182815481106135cc576135cc6138aa565b60009182526020822001546001600160a01b031691506135eb82611005565b905060006127106135fc8388613a10565b6136069190613a2f565b90506136128382613295565b5050508080613620906139f7565b9150506135ad565b80600954613507919061387d565b600080516020613d6a8339815191526001600160a01b031663d0e30db0826040518263ffffffff1660e01b81526004016000604051808303818588803b15801561367f57600080fd5b505af1158015613693573d6000803e3d6000fd5b505050505050565b806007546136a99190613865565b60075550565b806008546136bd9190613865565b60085550565b60405180610160016040528060006001600160a01b031681526020016000815260200160008152602001600081526020016000815260200160008152602001600081526020016000815260200160008152602001600081526020016000151581525090565b600060208083528351808285015260005b8181101561375557858101830151858201604001528201613739565b81811115613767576000604083870101525b50601f01601f1916929092016040019392505050565b60006020828403121561378f57600080fd5b81356001600160a01b0381168114610f2957600080fd5b6000602082840312156137b857600080fd5b5035919050565b600181811c908216806137d357607f821691505b6020821081036137f357634e487b7160e01b600052602260045260246000fd5b50919050565b60208082526036908201527f54686973206164647265737320686173206e6576657220636f6e747269627574604082015275195908111052481d1bc81d1a19481c1c9bdd1bd8dbdb60521b606082015260800190565b634e487b7160e01b600052601160045260246000fd5b600082198211156138785761387861384f565b500190565b60008282101561388f5761388f61384f565b500390565b634e487b7160e01b600052604160045260246000fd5b634e487b7160e01b600052603260045260246000fd5b600081518084526020808501945080840160005b838110156138f95781516001600160a01b0316875295820195908201906001016138d4565b509495945050505050565b84815260806020820152600061391d60808301866138c0565b6001600160a01b03949094166040830152506060015292915050565b6000602080838503121561394c57600080fd5b825167ffffffffffffffff8082111561396457600080fd5b818501915085601f83011261397857600080fd5b81518181111561398a5761398a613894565b8060051b604051601f19603f830116810181811085821117156139af576139af613894565b6040529182528482019250838101850191888311156139cd57600080fd5b938501935b828510156139eb578451845293850193928501926139d2565b98975050505050505050565b600060018201613a0957613a0961384f565b5060010190565b6000816000190483118215151615613a2a57613a2a61384f565b500290565b600082613a4c57634e487b7160e01b600052601260045260246000fd5b500490565b6020808252818101527f4f776e61626c653a2063616c6c6572206973206e6f7420746865206f776e6572604082015260600190565b600060208284031215613a9857600080fd5b5051919050565b60208082526037908201527f54686973206164647265737320686173206e6576657220636f6e74726962757460408201527f6564204156415820746f207468652070726f746f636f6c000000000000000000606082015260800190565b6001600160a01b03929092168252602082015260400190565b600060208284031215613b2757600080fd5b81518015158114610f2957600080fd5b6020808252601f908201527f5265656e7472616e637947756172643a207265656e7472616e742063616c6c00604082015260600190565b6020808252602b908201527f506c65617365207761697420666f722074686520547265617375727920746f2060408201526a4661726d205969656c647360a81b606082015260800190565b6001600160a01b0393841681526020810192909252909116604082015260600190565b60208082526036908201527f54686973207573657220686173206e6f7420636f6e747269627574656420616e6040820152751e5d1a1a5b99c81d1bc81d1a19481c1c9bdd1bd8dbdb60521b606082015260800190565b60208082526033908201527f54686973207573657220686173206e6f7468696e6720746f20776974686472616040820152721dc8199c9bdb481d1a19481c1c9bdd1bd8dbdb606a1b606082015260800190565b6020808252603a908201527f436f6e747269627574696f6e73206d757374206265206f76657220746865206d60408201527f696e696d756d20636f6e747269627574696f6e20616d6f756e74000000000000606082015260800190565b608081526000613cf560808301876138c0565b6020830195909552506001600160a01b0392831660408201529116606090910152919050565b6001600160a01b03948516815260208101939093529216604082015261ffff909116606082015260800190565b828152604060208201526000613d6160408301846138c0565b94935050505056fe000000000000000000000000b31f66aa3c1e785363f0875a1b74e27b85fd66c7a2646970667358221220c18d861e6fa9237b84b6693bec2cd4a71c17ac01a52c315ebf963818ca1b664a64736f6c634300080f0033",
    "sourcePath": "c:/SmartContracts/COYIELD/Treasury.sol",
    "compiler": {
        "name": "solc",
        "version": "0.8.15+commit.e14f2714"
    },
    "functionHashes": {
        "AVAXBalance()": "b68df355",
        "COLD_AVAX()": "390e2445",
        "COLD_DAI()": "80ddf75a",
        "CONTRACT_RENOUNCED()": "81153e2e",
        "CUSTODIAN_FEE()": "1fe83d20",
        "CheckContractRenounced()": "073cde2d",
        "ClaimYield()": "84583348",
        "ClaimYieldAVAX()": "6d8f9618",
        "Contribute(uint256)": "d10e66fc",
        "ContributeAVAX()": "a3d5792f",
        "ContributerCount()": "15d394ef",
        "ContributerExists(address)": "d75e6d61",
        "Credits()": "63d23f0e",
        "DaiBalance()": "3f3255b4",
        "FarmAVAXYields()": "523aabc4",
        "FarmYields()": "9ce2c9cf",
        "GetAAVERewards()": "d1736364",
        "GetColdAvax()": "7eed4c69",
        "GetColdDai()": "56d62427",
        "GetContributerAVAXPercentageByAddress(address)": "43921f6a",
        "GetContributerAVAXYield(address)": "cead793a",
        "GetContributerJoindate(address)": "d4ffde44",
        "GetContributerPercentageByAddress(address)": "3416422e",
        "GetContributerUnstakeableAVAXAmount(address)": "34696eb5",
        "GetContributerUnstakeableAmount(address)": "13d6ccef",
        "GetContributerYield(address)": "0b944ceb",
        "GetContributionAVAXAmount(address)": "4684d9c4",
        "GetContributionAVAXYield(address)": "5659224e",
        "GetContributionAmount(address)": "5e8377d6",
        "GetContributionYield(address)": "372e6250",
        "GetHotAvax()": "80d22ad0",
        "GetHotDai()": "62bf5f10",
        "GetLastYieldTime()": "6bd09976",
        "GetLifetimeContributionAVAXAmount(address)": "8756f16a",
        "GetLifetimeContributionAmount(address)": "a20f5d93",
        "GetPendingYield()": "5cc6d5ef",
        "GetPendingYieldAVAX()": "2112e1dd",
        "GetTotalAvaxContribution()": "48f3c68c",
        "GetTotalDaiContribution()": "df6c10f3",
        "GetYieldAvax()": "4a7d8695",
        "GetYieldDai()": "f6817f92",
        "GiveMeDai()": "24d1095c",
        "HOT_AVAX()": "983a2841",
        "HOT_DAI()": "33f3d3fe",
        "HaltContribution()": "7202370c",
        "HaltContributionAvax()": "d70644bb",
        "LAST_YIELD_TIME()": "32e91bad",
        "MINIMUM_CONTRIBUTION_AMOUNT_AVAX()": "43b6a598",
        "MINIMUM_CONTRIBUTION_AMOUNT_DAI()": "ab7cc819",
        "MinimumAvaxContribution(uint256)": "7a575396",
        "MinimumDaiContribution(uint256)": "38099fe7",
        "RefreshAllowance()": "73150483",
        "RenounceContract()": "667f085d",
        "RescueAvax()": "9c0c0aab",
        "RescueDai()": "46cd4f8c",
        "SweepAvax()": "726480c2",
        "SweepDai()": "7a364be5",
        "TOTAL_AVAX_CONTRIBUTION()": "8747fe91",
        "TOTAL_DAI_CONTRIBUTION()": "36e71ee3",
        "UNSTAKEABLE_FEE()": "2125e196",
        "WAVAXBalance()": "a09e0076",
        "YIELD_AVAX()": "2532c6ed",
        "YIELD_DAI()": "39607c4b",
        "avAVAXBalance()": "6ccd50aa",
        "avDAIBalance()": "baa615ca",
        "contributerList(uint256)": "46060e54",
        "contributers(address)": "34b66460",
        "name()": "06fdde03",
        "owner()": "8da5cb5b",
        "renounceOwnership()": "715018a6",
        "symbol()": "95d89b41",
        "transferOwnership(address)": "f2fde38b"
    },
    "gasEstimates": {
        "creation": {
            "codeDepositCost": "3161400",
            "executionCost": "infinite",
            "totalCost": "infinite"
        },
        "external": {
            "": "231",
            "AVAXBalance()": "327",
            "COLD_AVAX()": "2364",
            "COLD_DAI()": "2407",
            "CONTRACT_RENOUNCED()": "2444",
            "CUSTODIAN_FEE()": "286",
            "CheckContractRenounced()": "2385",
            "ClaimYield()": "infinite",
            "ClaimYieldAVAX()": "infinite",
            "Contribute(uint256)": "infinite",
            "ContributeAVAX()": "infinite",
            "ContributerCount()": "2361",
            "ContributerExists(address)": "2620",
            "Credits()": "409",
            "DaiBalance()": "infinite",
            "FarmAVAXYields()": "infinite",
            "FarmYields()": "infinite",
            "GetAAVERewards()": "infinite",
            "GetColdAvax()": "2360",
            "GetColdDai()": "2426",
            "GetContributerAVAXPercentageByAddress(address)": "infinite",
            "GetContributerAVAXYield(address)": "4835",
            "GetContributerJoindate(address)": "4901",
            "GetContributerPercentageByAddress(address)": "infinite",
            "GetContributerUnstakeableAVAXAmount(address)": "4838",
            "GetContributerUnstakeableAmount(address)": "4906",
            "GetContributerYield(address)": "4882",
            "GetContributionAVAXAmount(address)": "4880",
            "GetContributionAVAXYield(address)": "4880",
            "GetContributionAmount(address)": "4857",
            "GetContributionYield(address)": "4902",
            "GetHotAvax()": "2382",
            "GetHotDai()": "2403",
            "GetLastYieldTime()": "2361",
            "GetLifetimeContributionAVAXAmount(address)": "4879",
            "GetLifetimeContributionAmount(address)": "4835",
            "GetPendingYield()": "infinite",
            "GetPendingYieldAVAX()": "infinite",
            "GetTotalAvaxContribution()": "2448",
            "GetTotalDaiContribution()": "2402",
            "GetYieldAvax()": "2360",
            "GetYieldDai()": "2446",
            "GiveMeDai()": "infinite",
            "HOT_AVAX()": "2363",
            "HOT_DAI()": "2408",
            "HaltContribution()": "infinite",
            "HaltContributionAvax()": "infinite",
            "LAST_YIELD_TIME()": "2386",
            "MINIMUM_CONTRIBUTION_AMOUNT_AVAX()": "2363",
            "MINIMUM_CONTRIBUTION_AMOUNT_DAI()": "2406",
            "MinimumAvaxContribution(uint256)": "24620",
            "MinimumDaiContribution(uint256)": "24620",
            "RefreshAllowance()": "infinite",
            "RenounceContract()": "26663",
            "RescueAvax()": "infinite",
            "RescueDai()": "infinite",
            "SweepAvax()": "infinite",
            "SweepDai()": "infinite",
            "TOTAL_AVAX_CONTRIBUTION()": "2384",
            "TOTAL_DAI_CONTRIBUTION()": "2407",
            "UNSTAKEABLE_FEE()": "330",
            "WAVAXBalance()": "infinite",
            "YIELD_AVAX()": "2364",
            "YIELD_DAI()": "2386",
            "avAVAXBalance()": "infinite",
            "avDAIBalance()": "infinite",
            "contributerList(uint256)": "4704",
            "contributers(address)": "23979",
            "name()": "infinite",
            "owner()": "2464",
            "renounceOwnership()": "28252",
            "symbol()": "infinite",
            "transferOwnership(address)": "28409"
        },
        "internal": {
            "AddContributerAVAXYield(address,uint256)": "24494",
            "AddContributerYield(address,uint256)": "24494",
            "BTCToCurve()": "infinite",
            "DecreaseHotAvax(uint256)": "24287",
            "DecreaseHotDai(uint256)": "24287",
            "DecreaseYieldAvax(uint256)": "24287",
            "DecreaseYieldDai(uint256)": "24287",
            "ForceHaltContribution(address)": "infinite",
            "ForceHaltContributionAvax(address)": "infinite",
            "GetAAVEAvax(uint256)": "infinite",
            "GetAAVEDai(uint256)": "infinite",
            "GetAmountOutMins(uint256)": "infinite",
            "IncreaseColdAvax(uint256)": "24290",
            "IncreaseColdDai(uint256)": "24290",
            "IncreaseContributionTotal(uint256)": "24290",
            "IncreaseContributionTotalDai(uint256)": "24290",
            "IncreaseHotAvax(uint256)": "24290",
            "IncreaseHotDai(uint256)": "24290",
            "IncreaseYieldAvax(uint256)": "24290",
            "IncreaseYieldDai(uint256)": "24290",
            "RemoveContributerAVAXYield(address,uint256)": "infinite",
            "RemoveContributerYield(address,uint256)": "infinite",
            "SplitAAVERewards(uint256)": "infinite",
            "SwapAVAXToDai(uint256)": "infinite",
            "SwapWAVAXToDai(uint256)": "infinite",
            "UnwrapAVAX(uint256)": "infinite",
            "WrapAVAX(uint256)": "infinite"
        }
    }
}